:020000040801F1
:1000000000000220E1230108A1210108A721010825
:10001000AD210108B3210108B92101080000000049
:1000200000000000000000000000000051A90108CD
:10003000BF21010800000000A1AB010809AC0108C4
:100040003124010831240108312401083124010838
:100050003124010831240108312401083124010828
:100060003124010831240108312401083124010818
:10007000CD21010831240108E121010831240108C2
:1000800031240108312401083124010831240108F8
:1000900031240108312401083124010831240108E8
:1000A00031240108F5210108312401083124010817
:1000B00009220108312401083124010831240108F2
:1000C00031240108312401083124010831240108B8
:1000D0003124010831240108312401081D220108BE
:1000E0003124010831240108312401083124010898
:1000F0003124010831240108312401083124010888
:100100003124010831240108312401083124010877
:100110003124010831240108312401083124010867
:100120003124010831220108312401083124010859
:100130003124010831240108312401083124010847
:100140003124010831240108312401083124010837
:1001500031240108452201083124010859220108EF
:100160003124010831240108312401083124010817
:100170003124010831240108312401080000000065
:080180003124010831240108BB
:1001900010B5054C237833B9044B13B10448AFF3C1
:1001A00000800123237010BDD80000200000000053
:1001B00084E6030808B5034B1BB103490348AFF3BA
:1001C000008008BD00000000DC00002084E6030879
:1001D000034613F8012B002AFBD1181A0138704787
:1001E00001F0FF01102A2BDB10F0070F08D010F8E8
:1001F000013B013A8B422DD010F0070F42B3F6D1EC
:10020000F0B441EA012141EA014122F007047FF004
:1002100000070023F0E80256083C85EA010586EA5B
:10022000010685FA47F5A3FA87F586FA47F6A5FA97
:1002300087F68EB9EED1F0BC01F0FF0102F00702A3
:1002400032B110F8013B013A83EA010313B1F8D14E
:100250000020704701387047002D06BF354603382F
:10026000073815F0010F07D1013015F4807F02BF68
:10027000013015F4C03F0130F0BC0138704700BFB9
:1002800053B94AB9002908BF00281CBF4FF0FF31FD
:100290004FF0FF3000F06EB9ADF1080C6DE904CEFF
:1002A00000F006F8DDF804E0DDE9022304B0704751
:1002B0002DE9F047089D04468C46002B40F08380D2
:1002C0008A42174647D9B2FA82F242B1C2F12000FF
:1002D00024FA00F09140974040EA010C94404FEA24
:1002E0001748230CBCFBF8F61FFA87FE08FB16C163
:1002F00043EA014306FB0EF1994209D9FB1806F1C6
:10030000FF3080F01981994240F21681023E3B4451
:100310005B1AA4B2B3FBF8F008FB103344EA0344C1
:1003200000FB0EFEA64509D93C1900F1FF3380F011
:100330000581A64540F2028102383C4440EA06406D
:10034000A4EB0E0400261DB1D4400023C5E90043F0
:100350003146BDE8F08702B9FFDEB2FA82F2002A28
:1003600050D1CB1B4FEA174E1FFA87F80126B3FB7B
:10037000FEFC210C0EFB1C3341EA034108FB0CF38D
:100380008B4207D979180CF1FF3002D28B4200F270
:10039000E9808446C91AA3B2B1FBFEF00EFB10112E
:1003A00043EA014408FB00F8A04507D93C1900F1D5
:1003B000FF3302D2A04500F2D9801846A4EB08040E
:1003C00040EA0C40BFE78B4209D9002D00F0B18014
:1003D0000026C5E9000130463146BDE8F087B3FA92
:1003E00083F6002E4AD18B4202D3824200F2B880BB
:1003F000841A61EB030101208C46002DA8D0C5E9C9
:10040000004CA5E7C2F1200320FA03F6974001FA59
:1004100002F04FEA174ED9403043030CB1FBFEF611
:100420001FFA87F80EFB161143EA014306FB08F199
:10043000994204FA02F409D9FB1806F1FF3C80F056
:100440008D80994240F28A80023E3B445B1A81B221
:10045000B3FBFEF00EFB103341EA034100FB08F34F
:100460008B4207D9791800F1FF3C73D28B4271D9C6
:1004700002383944CB1A40EA064678E7C6F1200C28
:1004800003FA06F422FA0CF31C4320FA0CF701FAE3
:1004900006F34FEA144E21FA0CF11F433B0CB1FB5B
:1004A000FEF91FFA84F80EFB191143EA014109FB1A
:1004B00008FA8A4502FA06F200FA06F308D961182A
:1004C00009F1FF3048D28A4546D9A9F102092144F1
:1004D000A1EB0A01BFB2B1FBFEF00EFB101147EA1F
:1004E000014700FB08F8B84507D9E71900F1FF31CB
:1004F0002ED2B8452CD90238274440EA0940A7EB50
:100500000807A0FB02894F45C64649461AD317D0B3
:100510005DB1B3EB0E0267EB010707FA0CFCF2408A
:100520004CEA0202F740C5E9002700263146BDE843
:10053000F0872E4628460BE70646E9E61846FDE614
:100540004345E5D2B8EB020E69EB04010138DFE761
:100550000846D2E760468DE78146B9E7664675E70B
:1005600030464AE7ACF1020C394413E702383C4408
:1005700024E700BF704700BF80B485B000AFF860CB
:10058000B9607A60FB68074A1A60BB68064A1A605D
:100590007B6880221A6000BF1437BD465DF8047B7B
:1005A000704700BFF4000020A801002080B485B08F
:1005B00000AFF860B9607A60FB68074A1A60BB68F0
:1005C000064A1A607B684FF480721A6000BF1437C5
:1005D000BD465DF8047B7047A80300205C04002042
:1005E00080B400AFBFF34F8F00BF064BDB6803F44E
:1005F000E0620449044B1343CB60BFF34F8F00BF4D
:1006000000BFFDE700ED00E00400FA0580B582B010
:1006100000AF78607B681B68104A934204D1104B8E
:100620001B68184607F0E8F97B681B680D4A93427F
:100630000FD10D4B1B68184607F0DEF900224FF46E
:1006400080610A4803F056F801220949094805F07B
:100650009FFE00BF0837BD4680BD00BF0048004078
:10066000149E0020001401401C9B00200018024032
:10067000FC970020409D002080B582B000AF7860DC
:100680007B681B68214A934219D1214B1B785A1C65
:10069000D1B21F4A11701A461E4B19781E4B99543D
:1006A0001E4B1B681B4A127811464FF4FA6218461B
:1006B00007F000FA01221749194805F069FE7B6826
:1006C0001B68184A93421CD1174B1B7803F07F0319
:1006D000DAB2154B1A70154B1B785A1CD1B2134A5B
:1006E00011701A46104B1978114B995400224FF48F
:1006F0008061104802F0FEFF01220B490E4805F010
:1007000047FE00BF0837BD4680BD00BF004800401F
:100710005C0800203C9B0020409C002008830020B7
:100720005882002000140140FC9700205D08002042
:10073000B099002000180240409D0020B0B5FCB0E8
:1007400000AF01F077FE00F033FA00F041FD00F059
:10075000F9FC00F051FB00F04DFC00F09FFC00F0B4
:10076000C7FC00F02FFB00F08BFB00F0F7FB00F064
:100770008DFA00F0F9FA00F0B9FB00F065FC18F012
:10078000D1F8322001F098FE18F0D8F8CF4B1B6F4B
:100790000023C7F8E8310023C7F8EC3107F5F473FC
:1007A000184607F00DF80346C94A13600023C7F83E
:1007B000E0310023C7F8E43107F5F073184606F07E
:1007C000FFFF0346C34A13600023C7F8D831002354
:1007D000C7F8DC3107F5EC730121184607F08CF8F7
:1007E0000346BD4A13600023C7F8D0310023C7F881
:1007F000D43107F5E8730121184607F07DF8034668
:10080000B64A13600023C7F8C8310023C7F8CC31BB
:1008100007F5E4730121184607F06EF80346B04A65
:1008200013600023C7F8C0310023C7F8C43107F5AF
:10083000E0730121184607F05FF80346A94A1360E8
:100840000023C7F8B8310023C7F8BC3107F5DC73C3
:100850000121184607F050F80346A34A1360A34B42
:10086000C7F8B0310023C7F8B43107F5D8730022B8
:100870000021184606F0F0FE03469D4A13609D4B8A
:10088000C7F8A8310023C7F8AC3107F5D4730022AC
:100890000021184606F0E0FE0346974A1360974B86
:1008A00007F5CC740FCB84E80F0007F5CC7300215B
:1008B000184607F0D7F80346914A13608F4B07F5A7
:1008C000C4740FCB84E80F0007F5C47300211846E9
:1008D00007F0C8F803468B4A13608B4B07F5B674D4
:1008E0001D460FCD0FC495E8070084E8070007F503
:1008F000B6730021184606F04EFE0346834A136085
:10090000834B07F5A8741D460FCD0FC495E807006B
:1009100084E8070007F5A8730021184606F03BFE9F
:1009200003467C4A13607C4B07F59A741D460FCD35
:100930000FC495E8070084E8070007F59A730021C3
:10094000184606F028FE0346744A1360744B07F5F8
:100950008C741D460FCD0FC495E8070084E807008E
:1009600007F58C730021184606F015FE03466D4A04
:1009700013606D4B07F1FC041D460FCD0FC495E8C5
:10098000070084E8070007F1FC030021184606F081
:1009900002FE0346654A136007F1E003644A1C4601
:1009A00015460FCD0FC495E8070084E8070007F14E
:1009B000E0030021184606F0EEFD03465D4A136091
:1009C00007F1C4035C4A1C4615460FCD0FC495E8D9
:1009D000070084E8070007F1C4030021184606F069
:1009E000DAFD0346554A136007F1A803544A1C4632
:1009F00015460FCD0FC495E8070084E8070007F1FE
:100A0000A8030021184606F0C6FD03464D4A1360B0
:100A100007F18C034C4A1C4615460FCD0FC495E8D0
:100A2000070084E8070007F18C030021184606F050
:100A3000B2FD0346454A136007F17003444A1C4661
:100A400015460FCD0FC495E8070084E8070007F1AD
:100A500070030021184606F09EFD03463D4A1360D0
:100A600007F154033C4A1C4615460FCD0FC495E8C8
:100A7000070084E8070007F154030021184606F038
:100A80008AFD0346354A136007F13803344A1C4691
:100A900015460FCD0FC495E8070084E8070007F15D
:100AA00038030021184606F076FD03462D4A1360F0
:100AB00007F11C032C4A1C4615460FCD0FC495E8C0
:100AC000070084E8070007F11C034FE000380240EC
:100AD00014970020389B0020149E0020309E002098
:100AE0001C9B0020F49A0020CC9D0020ED130108EF
:100AF0000C9700200D140108189700205CE70308EC
:100B000008830020F88200206CE703083881002069
:100B100088E7030834810020A4E70308189E00201A
:100B2000C0E70308AC990020DCE70308A89900207F
:100B3000F8E70308E497002014E8030884970020EE
:100B400030E803089C8200204CE80308A4990020A8
:100B500068E80308E097002084E80308F482002096
:100B6000A0E8030810970020BCE8030800211846FD
:100B700006F011FD03460B4A13603B460A4A1C4629
:100B800015460FCD0FC495E8070084E807003B46E3
:100B90000021184606F0FFFC0346044A136006F0E5
:100BA000F3FCFEE7F4810020D8E803083C9C002019
:100BB00080B594B000AF07F1200330220021184621
:100BC0002CF0B1FD07F10C0300221A605A609A6004
:100BD000DA601A610023BB602A4B1B6C294A43F080
:100BE00080531364274B1B6C03F08053BB60BB68BE
:100BF00000237B60244B1B68234A43F4804313602B
:100C0000214B1B6803F480437B607B680D233B62B0
:100C10004FF480337B620123BB6201237B63022399
:100C2000BB634FF48003FB6319233B644FF4A87349
:100C30007B640223BB640423FB6407F12003184692
:100C400002F022FF0346002B01D000F0FFFE0F232D
:100C5000FB6002233B6100237B614FF4A053BB6127
:100C60004FF48053FB6107F10C030521184603F094
:100C700083F90346002B01D000F0E8FE00BF503797
:100C8000BD4680BD003802400070004080B584B091
:100C900000AF3B4600221A605A609A60DA602F4B20
:100CA0002F4A1A602D4B4FF480325A602B4B002292
:100CB0009A602A4B01221A61284B00221A76274B90
:100CC000002283F82020254B0022DA62234B254A9C
:100CD0009A62224B0022DA60204B0322DA611F4B1A
:100CE000002283F830201D4B01225A611B4801F07D
:100CF00007FC0346002B01D000F0A8FE0A233B604E
:100D000001237B600123BB603B461946134801F079
:100D10003BFC0346002B01D000F098FE0C233B6007
:100D200002237B603B4619460C4801F02DFC03462C
:100D3000002B01D000F08AFE0D233B6003237B6073
:100D40003B461946054801F01FFC0346002B01D025
:100D500000F07CFE00BF1037BD4680BD5C990020CE
:100D6000002001400100000F80B500AF124B134A74
:100D70001A60114B124A5A600F4B00229A600E4BB8
:100D80000022DA600C4B4FF480421A610A4B0022B9
:100D90005A61094B00229A61074B0022DA61064B27
:100DA00000221A62044802F0D9FC0346002B01D04D
:100DB00000F04CFE00BF80BDA08200200054004027
:100DC000A086010080B500AF094B0A4A1A60084BA3
:100DD00003225A60064B4FF47A629A60044802F08C
:100DE00001FE0346002B01D000F030FE00BF80BDA5
:100DF000FC8200200030004080B586B000AF3B1D73
:100E000000221A605A609A60DA601A6100233B601F
:100E1000194B1A4A1A60184B00225A60164B7F224F
:100E20009A60154BFF22DA60134B00221A61124BB5
:100E300000225A61104B00229A610F4803F080FB98
:100E40000346002B01D000F001FE00233B7100237C
:100E50007B710023BB7100233B6100237B61012375
:100E60003B7001237B700123BB700023FB7000BF2C
:100E70001837BD4680BD00BFFC9A00200028004006
:100E800080B500AF174B184A1A60164B4FF48272A8
:100E90005A60144B00229A60124B0022DA60114B08
:100EA00000221A610F4B00225A610E4B4FF4007260
:100EB0009A610C4B2022DA610A4B00221A62094B1C
:100EC00000225A62074B00229A62064B0A22DA621B
:100ED000044803F033FE0346002B01D000F0B6FDBA
:100EE00000BF80BD9C8100200038004080B500AF6D
:100EF000184B194A1A60174B4FF482725A60154BFF
:100F00004FF400429A60134B0022DA60114B00222A
:100F10001A61104B00225A610E4B4FF400729A6115
:100F20000C4B2022DA610B4B00221A62094B002283
:100F30005A62084B00229A62064B0A22DA6205487E
:100F400003F0FCFD0346002B01D000F07FFD00BF45
:100F500080BD00BF88970020003C004080B586B06F
:100F600000AF07F1080300221A605A609A60DA6045
:100F70003B4600221A605A601D4B4FF080421A60B7
:100F80001B4B53225A601A4B00229A60184B40F2B6
:100F9000E732DA60164B00221A61154B00229A6183
:100FA000134804F073FB0346002B01D000F04EFD04
:100FB0004FF48053BB6007F1080319460C4804F056
:100FC0002DFD0346002B01D000F040FD00233B60C7
:100FD00000237B603B461946054804F049FF034661
:100FE000002B01D000F032FD00BF1837BD4680BD98
:100FF000849D002080B500AF114B124A1A60104B3F
:101000004FF416525A600E4B00229A600C4B00228D
:10101000DA600B4B00221A61094B0C225A61084B13
:1010200000229A61064B0022DA61054804F0B0FF05
:101030000346002B01D000F009FD00BF80BD00BFBA
:10104000B09A00200010014080B500AF114B124A49
:101050001A60104B4FF4E1325A600E4B00229A6036
:101060000C4B0022DA600B4B00221A61094B0C2258
:101070005A61084B00229A61064B0022DA6105484A
:1010800004F086FF0346002B01D000F0DFFC00BF18
:1010900080BD00BFD09D00200044004080B500AF5F
:1010A000114B124A1A60104B4FF416525A600E4BF5
:1010B00000229A600C4B0022DA600B4B00221A616E
:1010C000094B0C225A61084B00229A61064B002200
:1010D000DA61054804F05CFF0346002B01D000F004
:1010E000B5FC00BF80BD00BF588200200048004012
:1010F00080B500AF114B124A1A60104B4FF41652D4
:101100005A600E4B00229A600C4B0022DA600B4BA7
:101110004FF480621A61094B0C225A61074B00227E
:101120009A61064B0022DA61044804F031FF03465D
:10113000002B01D000F08AFC00BF80BD409D002044
:101140000014014080B582B000AF00237B601F4BCC
:101150001B6B1E4A43F4001313631C4B1B6B03F4FD
:1011600000137B607B6800233B60184B1B6B174AA6
:1011700043F480031363154B1B6B03F480033B6044
:101180003B68002205210C2001F0D4FC0C2001F06A
:10119000EDFC002205210E2001F0CCFC0E2001F018
:1011A000E5FC00220521392001F0C4FC392001F0C2
:1011B000DDFC00220521452001F0BCFC452001F0AA
:1011C000D5FC00BF0837BD4680BD00BF00380240D7
:1011D00080B58CB000AF07F11C0300221A605A6082
:1011E0009A60DA601A610023BB617A4B1B6B794A03
:1011F00043F010031363774B1B6B03F01003BB61C9
:10120000BB6900237B61734B1B6B724A43F0040381
:101210001363704B1B6B03F004037B617B6900233A
:101220003B616C4B1B6B6B4A43F080031363694B50
:101230001B6B03F080033B613B690023FB60654B44
:101240001B6B644A43F001031363624B1B6B03F097
:101250000103FB60FB680023BB605E4B1B6B5D4AB8
:1012600043F0020313635B4B1B6B03F00203BB6091
:10127000BB6800237B60574B1B6B564A43F0080347
:101280001363544B1B6B03F008037B607B680022E5
:1012900048F27E01504802F02DFA002242F202018B
:1012A0004E4802F027FA002203214D4802F022FAAC
:1012B00000224FF481514B4802F01CFA00224FF4F7
:1012C0004061494802F016FA01224FF40061434898
:1012D00002F010FA48F27E03FB6101233B62002317
:1012E0007B620023BB6207F11C0319463A4802F0F7
:1012F0004DF842F60203FB6101233B6200237B624F
:101300000023BB6207F11C031946344802F03EF883
:101310000323FB6101233B6200237B620023BB624A
:1013200007F11C0319462E4802F030F8F023FB6148
:1013300000233B6200237B6207F11C031946284807
:1013400002F024F83023FB6100233B6200237B6220
:1013500007F11C031946214802F018F80323FB612A
:1013600000233B6200237B6207F11C0319461D48E2
:1013700002F00CF840F28173FB6100233B62002312
:101380007B6207F11C031946134801F0FFFF4FF47D
:101390008153FB6101233B6200237B620023BB621C
:1013A00007F11C0319460F4801F0F0FF4FF44063AA
:1013B000FB6101233B6202237B620023BB6207F1D6
:1013C0001C031946084801F0E1FF00BF3037BD4655
:1013D00080BD00BF003802400010024000080240FB
:1013E0000000024000040240000C024080B483B0C0
:1013F00000AF7860044B00221A7000BF0C37BD4666
:101400005DF8047B704700BFF89A002080B483B079
:1014100000AF7860044B01221A7000BF0C37BD4644
:101420005DF8047B704700BF5E08002080B582B085
:1014300000AF7860034802F017FB4FF47A7006F0B3
:10144000F6F8F7E7FC82002080B582B000AF786044
:101450007B681B688F4A934201D101F00DF87B68CD
:101460001B68B3F1804F40F0DE824FF080430022D2
:101470005A628021884802F025F90346002B25D1C5
:10148000864B1B889AB2864B1B889BB29A4207D226
:10149000824B1B889BB201339AB2804B1A8011E0B9
:1014A0007E4B1B889AB27E4B1B889BB29A4209D115
:1014B0007A4B1B889BB201339AB2784B1A80794BD6
:1014C00001221A70784B00221A7038E0734B1B8887
:1014D0009BB2052B11D9714B1B889AB2704B1B889C
:1014E0009BB29A4209D26D4B00221A806F4B0122A7
:1014F0001A706B4BC8221A800DE0684B1B889AB299
:10150000674B1B889BB29A4205D3644B00221A801A
:10151000634BC8221A80644B1B78DBB2132B0ED8A6
:10152000614B1B78DBB20133DAB25F4B1A705E4B52
:101530001B78DBB2142B02D1594BC8221A805B4BAB
:101540001B78DBB2012B1FD1584B00221A70584B6D
:1015500000221A80574B1B889BB2002B14D0564B8D
:101560001B889BB2002B07D1524B1B889BB2013BBF
:101570009AB2504B1A8007E04F4B1B889BB2022B4C
:1015800002D14E4B01221A70464B1B78DBB2012B65
:101590003AD1444B00221A70454B00221A80454B29
:1015A0001B889BB2002B2CD0434B1B889BB2002B7B
:1015B00013D1404B1B889BB2013B9AB23D4B1A8022
:1015C000374B1B889BB20A2B1BD9354B1B889BB210
:1015D0000A3B9AB2324B1A8013E0374B1B889BB2FE
:1015E000022B0ED1354B01221A702D4B1B889BB25A
:1015F000052B06D92A4B1B889BB2053B9AB2284B78
:101600001A80264B00221A804FF48071224802F083
:1016100059F80346002B25D1294B1B889AB2204B41
:101620001B889BB29A4207D2254B1B889BB2013381
:101630009AB2234B1A8011E0214B1B889AB2184BA7
:101640001B889BB29A4209D11D4B1B889BB2013368
:101650009AB21B4B1A801B4B01221A701A4B0022A4
:101660001A7057E0164B1B889BB2052B30D9144BD0
:101670001B889AB20A4B1B889BB29A4228D2104B05
:1016800000221A80114B01221A70054BC8221A80C1
:101690002CE000BF00000140001002406008002064
:1016A000000000206308002070080020620800206D
:1016B00002000020F87F0020FA7F0020FD7F00203C
:1016C00064080020670800207108002066080020D8
:1016D000924B1B889AB2924B1B889BB29A4205D3BD
:1016E0008E4B00221A808E4BC8221A808D4B1B789D
:1016F000DBB2132B0ED88B4B1B78DBB20133DAB283
:10170000884B1A70874B1B78DBB2142B02D1844BA9
:10171000C8221A80844B1B78DBB2012B21D1824B6B
:1017200000221A70814B00221A80814B1B889BB2C9
:1017300040F29A62934214D87E4B1B889BB2002BD6
:1017400007D17B4B1B889BB201339AB2784B1A802E
:1017500007E0784B1B889BB2022B02D1764B01220B
:101760001A70764B1B78DBB2012B3CD1734B0022F5
:101770001A706E4B00221A806D4B1B889BB240F290
:101780009A6293422CD86B4B1B889BB2002B13D1CF
:10179000674B1B889BB201339AB2654B1A80604B32
:1017A0001B889BB20A2B1BD95D4B1B889BB20A3B43
:1017B0009AB25B4B1A8013E05E4B1B889BB2022BE4
:1017C0000ED15D4B01221A70554B1B889BB2052B25
:1017D00006D9534B1B889BB2053B9AB2504B1A80DB
:1017E0004E4B00221A804FF40071554801F06AFFF9
:1017F0000346002B1ED1534B1B889BB2B3F5FA6FE7
:1018000007D2504B1B889BB201339AB24D4B1A80C2
:101810002BE04C4B1B889BB2B3F5FA6F25D1494B9B
:101820001B889BB201339AB2464B1A80464B012269
:101830001A701AE0434B1B889BB2052B0CD9414B05
:101840001B889BB2B3F5FA6F06D23E4B00221A807A
:101850003E4B01221A7008E03A4B1B889BB2B3F54D
:10186000FA6F02D3374B00221A80384B1B78DBB259
:10187000012B11D1354B00221A702C4B00221A80FB
:101880002C4B1B889BB2012B06D12A4B1B889BB289
:10189000013B9AB2274B1A802B4B1B78DBB2012BF2
:1018A00002D1294B00221A704FF48061244801F0C4
:1018B00009FF0346002B1ED1254B1B889BB2B3F5B5
:1018C000FA6F07D2224B1B889BB201339AB2204B8E
:1018D0001A804CE01E4B1B889BB2B3F5FA6F46D1C1
:1018E0001B4B1B889BB201339AB2194B1A80194BC0
:1018F00001221A703BE0164B1B889BB2052B2DD999
:10190000134B1B889BB2B3F5FA6F27D2104B002202
:101910001A80114B01221A7029E000BF64080020D0
:10192000000000207108002066080020020000204E
:10193000F87F0020FA7F0020FC7F0020670800204D
:1019400000100240680800206B0800206A08002090
:101950006C0800206F0800206E080020344B1B88A4
:101960009BB2B3F5FA6F02D3314B00221A80314B90
:101970001B78DBB2012B11D12E4B00221A702E4B9B
:1019800000221A802D4B1B889BB2002B06D12B4BBB
:101990001B889BB201339AB2284B1A80284B1B78C4
:1019A000DBB2012B1FD1264B00221A70234B1B8860
:1019B0009BB2012B0FD1234B1B889BB2442B0AD91E
:1019C000204B1B889BB240F29B62934203D81B4B77
:1019D00002221A8007E0194B1B889BB2022B02D10E
:1019E000194B01221A70144B1B889BB247F22F52DD
:1019F000934207D8104B1B889BB201339AB20E4B0F
:101A00001A8010E00C4B1B889BB247F23052934275
:101A100009D10A4B00221A800A4B00221A80064B79
:101A200047F231521A8000BF0837BD4680BD00BF63
:101A30006C0800206E08002002000020FA7F0020C1
:101A40006F080020F87F0020FE7F002080B500AFE7
:101A5000FEF7C6FD80B582B000AF00237B60124B5D
:101A60005B6C114A43F4804353640F4B5B6C03F48B
:101A700080437B607B6800233B600B4B1B6C0A4AF6
:101A800043F080531364084B1B6C03F080533B609E
:101A90003B6800220F216FF0010001F04BF800BFFE
:101AA0000837BD4680BD00BF0038024080B58AB00F
:101AB00000AF786007F1140300221A605A609A6040
:101AC000DA601A617B681B68174A934227D10023AA
:101AD0003B61164B5B6C154A43F480735364134BA4
:101AE0005B6C03F480733B613B690023FB600F4B2D
:101AF0001B6B0E4A43F0040313630C4B1B6B03F088
:101B00000403FB60FB680D237B610323BB6100239F
:101B1000FB6107F114031946054801F037FC00BFCB
:101B20002837BD4680BD00BF00200140003802407C
:101B30000008024080B58AB000AF786007F1140356
:101B400000221A605A609A60DA601A617B681B682A
:101B5000194A93422CD100233B61184B1B6B174A47
:101B600043F002031363154B1B6B03F002033B614D
:101B70003B694FF440737B611223BB610023FB611F
:101B800003233B6204237B6207F1140319460C48CC
:101B900001F0FCFB0023FB60084B1B6C074A43F47D
:101BA00000131364054B1B6C03F40013FB60FB680C
:101BB00000BF2837BD4680BD0054004000380240B9
:101BC0000004024080B586B000AF786007F10803DA
:101BD00000221A605A609A60DA607B681B680C4ABF
:101BE000934211D10223BB604FF480737B6107F1F4
:101BF0000803184602F0C2FB0346002B01D0FFF792
:101C000025FF044B01221A6000BF1837BD4680BD76
:101C1000002800403C0E474280B58CB000AF786091
:101C200007F11C0300221A605A609A60DA601A6198
:101C30007B681B68334A93422DD10023BB61324B32
:101C40001B6C314A43F4804313642F4B1B6C03F429
:101C50008043BB61BB6900237B612B4B1B6B2A4A12
:101C600043F002031363284B1B6B03F002037B61F9
:101C70007B694FF46043FB6102233B6200237B627C
:101C80000323BB620523FB6207F11C0319461F48AF
:101C900001F07CFB31E07B681B681D4A93422CD12C
:101CA00000233B61184B1B6C174A43F40043136439
:101CB000154B1B6C03F400433B613B690023FB6045
:101CC000114B1B6B104A43F0040313630E4B1B6B49
:101CD00003F00403FB60FB684FF4A053FB61022395
:101CE0003B6200237B620323BB620623FB6207F196
:101CF0001C031946074801F049FB00BF3037BD46B9
:101D000080BD00BF0038004000380240000402409F
:101D1000003C00400008024080B584B000AF78600D
:101D20007B681B68B3F1804F15D10023FB600C4B1F
:101D30001B6C0B4A43F001031364094B1B6C03F04B
:101D40000103FB60FB68002205211C2000F0F2FE6D
:101D50001C2000F00BFF00BF1037BD4680BD00BF48
:101D60000038024080B590B000AF786007F12C03D6
:101D700000221A605A609A60DA601A617B681B68F8
:101D80007C4A93422CD10023BB627B4B5B6C7A4A2A
:101D900043F010035364784B5B6C03F01003BB6299
:101DA000BB6A00237B62744B1B6B734A43F00203D4
:101DB0001363714B1B6B03F002037B627B6AC023CE
:101DC000FB6202233B6300237B630323BB63072384
:101DD000FB6307F12C031946684801F0D7FA73E159
:101DE0007B681B68664A93422CD100233B62624B9E
:101DF0001B6C614A43F4003313645F4B1B6C03F4A8
:101E000000333B623B6A0023FB615B4B1B6B5A4A0E
:101E100043F001031363584B1B6B03F00103FB6199
:101E2000FB690C23FB6202233B6300237B630323D8
:101E3000BB630723FB6307F12C031946514801F0EC
:101E4000A5FA41E17B681B684F4A934240F0A680A7
:101E50000023BB61484B1B6C474A43F48023136447
:101E6000454B1B6C03F48023BB61BB6900237B6182
:101E7000414B1B6B404A43F0020313633E4B1B6B09
:101E800003F002037B617B694FF44063FB62022332
:101E90003B6300237B630323BB630723FB6307F1DF
:101EA0002C031946354801F071FA384B384A1A604C
:101EB000364B4FF000625A60344B40229A60334BED
:101EC0000022DA60314B4FF480621A612F4B0022FE
:101ED0005A612E4B00229A612C4B0022DA612B4B67
:101EE00000221A62294B00225A62284800F04CFE58
:101EF0000346002B01D0FFF7A9FD7B68234A5A63F4
:101F0000224A7B689363234B234A1A60214B4FF08C
:101F100000625A601F4B00229A601E4B0022DA605A
:101F20001C4B4FF480621A611A4B00225A61194B04
:101F300000229A61174B0022DA61164B00221A62C6
:101F4000144B00225A62134800F01EFE0346002B79
:101F500001D0FFF77BFD7B680E4A9A630D4A7B68D0
:101F6000936300220521272000F0E4FD272000F0E4
:101F7000FDFDA9E0001001400038024000040240CD
:101F80000044004000000240004800401C97002030
:101F900058600240F8810020286002407B681B687E
:101FA0004B4A934240F0908000233B61494B5B6C6D
:101FB000484A43F020035364464B5B6C03F0200314
:101FC0003B613B690023FB60424B1B6B414A43F082
:101FD000040313633F4B1B6B03F00403FB60FB68BC
:101FE000C023FB6202233B6300237B630323BB63A9
:101FF0000823FB6307F12C031946374801F0C6F9A3
:10200000364B374A1A60354B4FF020625A60334BDB
:1020100040229A60314B0022DA60304B4FF48062EC
:102020001A612E4B00225A612C4B00229A612B4BD5
:102030000022DA61294B00221A62284B00225A62E0
:10204000264800F0A1FD0346002B01D0FFF7FEFC5F
:102050007B68224A5A63214A7B689363214B224A58
:102060001A60204B4FF020625A601E4B00229A608B
:102070001C4B0022DA601B4B4FF480621A61194B33
:1020800000225A61174B00229A61164B0022DA6136
:10209000144B00221A62134B00225A62114800F0BE
:1020A00073FD0346002B01D0FFF7D0FC7B680D4A7F
:1020B0009A630C4A7B68936300220521472000F055
:1020C00039FD472000F052FD00BF4037BD4680BDBE
:1020D000001401400038024000080240FC98002033
:1020E000A06402403C8100202864024080B58CB08E
:1020F00000AF78600023FB620023BB620022796896
:10210000192000F017FD192000F030FD0023FB60BE
:102110001F4B5B6C1E4A43F0010353641C4B5B6C0A
:1021200003F00103FB60FB6807F1100207F11403E1
:102130001146184602F0F0F802F0DAF803465B00A8
:10214000FB62FB6A134AA2FB03239B0C013BBB62AD
:10215000114B124A1A60104B40F2E732DA600E4A15
:10216000BB6A53600C4B00221A610B4B00229A6031
:10217000094803F08BFA0346002B04D1064803F00C
:10218000D5FA034600E0012318463037BD4680BD2E
:102190000038024083DE1B43349E002000000140D3
:1021A00080B400AFFEE780B400AFFEE780B400AFBC
:1021B000FEE780B400AFFEE780B400AFFEE780B476
:1021C00000AF00BFBD465DF8047B704780B500AF2F
:1021D000024800F071FE00BF80BD00BFF881002002
:1021E00080B500AF024800F067FE00BF80BD00BFB1
:1021F0001C97002080B500AF024803F007FB00BF2A
:1022000080BD00BF349E002080B500AF024803F0BF
:10221000FDFA00BF80BD00BF849D002080B500AFE7
:10222000024804F0E5F800BF80BD00BF58820020DE
:1022300080B500AF024800F03FFE00BF80BD00BF88
:102240003C81002080B500AF024800F035FE00BFA1
:1022500080BD00BFFC98002080B500AF024804F0AC
:10226000C7F800BF80BD00BF409D002080B586B08C
:1022700000AFF860B9607A6000237B610AE0AFF3D9
:1022800000800146BB685A1CBA60CAB21A707B69EA
:1022900001337B617A697B689A42F0DB7B68184680
:1022A0001837BD4680BD80B586B000AFF860B96014
:1022B0007A6000237B6109E0BB685A1CBA601B7816
:1022C0001846AFF300807B6901337B617A697B68D4
:1022D0009A42F1DB7B6818461837BD4680BD80B452
:1022E00083B000AF78604FF0FF3318460C37BD461F
:1022F0005DF8047B704780B483B000AF78603960CC
:102300003B684FF400525A60002318460C37BD4614
:102310005DF8047B704780B483B000AF7860012320
:1023200018460C37BD465DF8047B704780B485B015
:1023300000AFF860B9607A60002318461437BD46D4
:102340005DF8047B7047000080B586B000AF786010
:10235000144A154BD31A7B617B693B61134B1B6895
:10236000002B02D1114B124A1A60104B1A687B687D
:1023700013443A699A4207D22BF0A4F803460C2280
:102380001A604FF0FF3309E0084B1B68FB60074BF6
:102390001A687B681344054A1360FB6818461837AF
:1023A000BD4680BD0000022000040000740800202B
:1023B00018B0002080B400AF074BD3F88830064A2D
:1023C00043F47003C2F88830034B044A9A6000BF9C
:1023D000BD465DF8047B704700ED00E00000010899
:1023E000DFF834D00D480E490E4A002302E0D458DD
:1023F000C4500433C4188C42F9D30B4A0B4C00234D
:1024000001E013600432A242FBD3FFF7D3FF2BF0AD
:1024100055F9FEF793F970470000022000000020F4
:10242000D8000020F8ED0308D800002014B00020E8
:10243000FEE7000080B500AF0E4B1B680D4A43F469
:10244000007313600B4B1B680A4A43F480631360EC
:10245000084B1B68074A43F480731360032000F0A5
:102460005EFB0F20FFF742FEFFF7F4FA0023184649
:1024700080BD00BF003C024080B400AF064B1B781B
:102480001A46064B1B681344044A136000BFBD463E
:102490005DF8047B704700BF0C0000207C9E00208C
:1024A00080B400AF034B1B681846BD465DF8047B43
:1024B000704700BF7C9E002080B584B000AF78607C
:1024C000FFF7EEFFB8607B68FB60FB68B3F1FF3F8E
:1024D00005D00A4B1B781A46FB681344FB6000BF0B
:1024E000FFF7DEFF0246BB68D31AFA689A42F7D8B4
:1024F00000BF00BF1037BD4680BD00BF0C000020EC
:1025000080B584B000AF78600023FB737B68002B3C
:1025100001D1012333E07B681B6C002B09D1786863
:10252000FFF7C4FA7B6800225A647B68002283F8B4
:102530003C207B681B6C03F01003002B18D17B68D8
:102540001B6C23F4885323F0020343F002027B68E0
:102550001A64786800F03AF97B6800225A647B6854
:102560001B6C23F0030343F001027B681A6401E053
:102570000123FB737B68002283F83C20FB7B184619
:102580001037BD4680BD000080B485B000AF7860D4
:1025900039600023BB607B6893F83C30012B01D18C
:1025A000022305E17B68012283F83C203B681B681D
:1025B000092B25D97B681B68D9683B681B689BB2CF
:1025C0001A4613465B0013441E3B072202FA03F32C
:1025D000DA437B681B680A40DA607B681B68D9684D
:1025E0003B689A683B681B689BB2184603465B00D1
:1025F00003441E3B9A407B681B680A43DA6022E072
:102600007B681B6819693B681B689BB21A461346B6
:102610005B001344072202FA03F3DA437B681B686A
:102620000A401A617B681B6819693B689A683B68B5
:102630001B689BB2184603465B0003449A407B68C4
:102640001B680A431A613B685B68062B24D87B68C9
:102650001B68596B3B685A6813469B001344053B43
:102660001F2202FA03F3DA437B681B680A405A63AD
:102670007B681B68596B3B681B689BB218463B68BC
:102680005A6813469B001344053B00FA03F27B682B
:102690001B680A435A634CE03B685B680C2B24D8E8
:1026A0007B681B68196B3B685A6813469B00134490
:1026B000233B1F2202FA03F3DA437B681B680A40BC
:1026C0001A637B681B68196B3B681B689BB21846D2
:1026D0003B685A6813469B001344233B00FA03F2FD
:1026E0007B681B680A431A6323E07B681B68D96A0E
:1026F0003B685A6813469B001344413B1F2202FA71
:1027000003F3DA437B681B680A40DA627B681B6864
:10271000D96A3B681B689BB218463B685A681346E7
:102720009B001344413B00FA03F27B681B680A4399
:10273000DA62224BFB607B681B68214A934209D115
:102740003B681B68122B05D1FB685B6843F4800271
:10275000FB685A607B681B68194A934223D13B6827
:102760001B68102B03D03B681B68112B1BD1FB6827
:102770005B6843F40002FB685A603B681B68102BDF
:1027800011D1104B1B68104AA2FB03239A0C13466D
:102790009B0013445B00BB6002E0BB68013BBB6075
:1027A000BB68002BF9D17B68002283F83C20002312
:1027B00018461437BD465DF8047B7047002301407E
:1027C000002001400400002083DE1B4380B485B05C
:1027D00000AF7860794BFB60FB685B6823F44032A4
:1027E000FB685A60FB685A687B685B681A43FB6841
:1027F0005A607B681B685A687B681B6822F4807289
:102800005A607B681B6859687B681B691A027B6881
:102810001B680A435A607B681B685A687B681B68A0
:1028200022F040725A607B681B6859687B689A681E
:102830007B681B680A435A607B681B689A687B68E0
:102840001B6822F400629A607B681B6899687B6849
:10285000DA687B681B680A439A607B689B6A584AFF
:10286000934222D07B681B689A687B681B6822F0C1
:1028700070629A607B681B6899687B689A6A7B685B
:102880001B680A439A607B681B689A687B681B68B0
:1028900022F040529A607B681B6899687B68DA6A0C
:1028A0007B681B680A439A600FE07B681B689A6824
:1028B0007B681B6822F070629A607B681B689A686C
:1028C0007B681B6822F040529A607B681B689A689C
:1028D0007B681B6822F002029A607B681B6899681B
:1028E0007B681B7E5A007B681B680A439A607B6882
:1028F00093F82030002B1BD07B681B685A687B68DC
:102900001B6842F400625A607B681B685A687B68E7
:102910001B6822F460425A607B681B6859687B68B8
:102920005B6A013B5A037B681B680A435A6007E0F5
:102930007B681B685A687B681B6822F400625A60D7
:102940007B681B68DA6A7B681B6822F47002DA62B3
:102950007B681B68D96A7B68DB69013B1A057B6869
:102960001B680A43DA627B681B689A687B681B688D
:1029700022F400729A607B681B6899687B6893F800
:1029800030305A027B681B680A439A607B681B6878
:102990009A687B681B6822F480629A607B681B6877
:1029A00099687B685B699A027B681B680A439A6036
:1029B00000BF1437BD465DF8047B7047002301401B
:1029C0000100000F80B485B000AF78607B6803F031
:1029D0000703FB600C4BDB68BB60BA684FF6FF0374
:1029E0001340BB60FB681A02BB68134343F0BF632C
:1029F00043F40033BB60044ABB68D36000BF1437A4
:102A0000BD465DF8047B704700ED00E080B400AF88
:102A1000044BDB681B0A03F007031846BD465DF84C
:102A2000047B704700ED00E080B483B000AF034644
:102A3000FB7197F90730002B0BDBFB7903F01F02CA
:102A4000074997F907305B09012000FA02F241F8C3
:102A5000232000BF0C37BD465DF8047B704700BFE4
:102A600000E100E080B483B000AF03463960FB7141
:102A700097F90730002B0ADB3B68DAB20C4997F96B
:102A800007301201D2B20B4483F800230AE03B68FE
:102A9000DAB20849FB7903F00F03043B1201D2B20A
:102AA0000B441A7600BF0C37BD465DF8047B7047B7
:102AB00000E100E000ED00E080B489B000AFF86014
:102AC000B9607A60FB6803F00703FB61FB69C3F13F
:102AD0000703042B28BF0423BB61FB690433062BC7
:102AE00002D9FB69033B00E000237B614FF0FF321A
:102AF000BB6902FA03F3DA43BB681A407B699A4068
:102B00004FF0FF317B6901FA03F3D9437B680B4037
:102B1000134318462437BD465DF8047B704780B5E3
:102B200082B000AF78607868FFF74CFF00BF0837CD
:102B3000BD4680BD80B586B000AF0346B9607A60FF
:102B4000FB7300237B61FFF761FF78617A68B968E6
:102B50007869FFF7B1FF024697F90F301146184622
:102B6000FFF780FF00BF1837BD4680BD80B582B03B
:102B700000AF0346FB7197F907301846FFF754FF83
:102B800000BF0837BD4680BD80B586B000AF786015
:102B900000237B61FFF784FC38617B68002B01D147
:102BA000012399E07B68022283F835207B680022AC
:102BB00083F834207B681B681A687B681B6822F0E6
:102BC00001021A600FE0FFF76BFC02463B69D31A63
:102BD000052B08D97B6820225A657B68032283F87D
:102BE0003520032378E07B681B681B6803F0010332
:102BF000002BE8D17B681B681B687B617A69384BC6
:102C000013407B617B685A687B689B681A437B68CA
:102C1000DB681A437B681B691A437B685B691A434C
:102C20007B689B691A437B68DB691A437B681B6A74
:102C300013437A6913437B617B685B6A042B07D17A
:102C40007B68DA6A7B681B6B13437A6913437B6189
:102C50007B681B687A691A607B681B685B697B61AB
:102C60007B6923F007037B617B685B6A7A691343A6
:102C70007B617B685B6A042B17D17B689B6A7A69EE
:102C800013437B617B68DB6A002B0ED0786800F011
:102C900001FB0346002B08D07B6840225A657B6805
:102CA000012283F83520012316E07B681B687A69CE
:102CB0005A61786800F0B8FA0346FB607B68DB6D08
:102CC0003F229A40FB689A607B6800225A657B68C5
:102CD000012283F83520002318461837BD4680BDF1
:102CE0003F8010F080B586B000AFF860B9607A60C0
:102CF0003B600023FB75FB689B6D3B61FB6893F8B1
:102D00003430012B01D1022340E0FB68012283F81B
:102D10003420FB6893F83530DBB2012B2FD1FB68F0
:102D2000022283F83520FB6800225A653B687A68E6
:102D3000B968F86800F04AFAFB68DB6D3F229A40F8
:102D40003B699A60FB681B681A68FB681B6842F065
:102D500016021A60FB681B6C002B07D0FB681B680F
:102D60001A68FB681B6842F008021A60FB681B685F
:102D70001A68FB681B6842F001021A6005E0FB68F4
:102D8000002283F834200223FB75FB7D1846183798
:102D9000BD4680BD80B584B000AF78607B689B6D18
:102DA000FB60FFF77DFBB8607B6893F83530DBB2E2
:102DB000022B08D07B6880225A657B68002283F84A
:102DC0003420012352E07B681B681A687B681B680B
:102DD00022F016021A607B681B685A697B681B68C0
:102DE00022F080025A617B681B6C002B03D17B6848
:102DF0009B6C002B07D07B681B681A687B681B687C
:102E000022F008021A607B681B681A687B681B68DE
:102E100022F001021A6013E0FFF742FB0246BB6892
:102E2000D31A052B0CD97B6820225A657B680322B4
:102E300083F835207B68002283F83420032315E0D3
:102E40007B681B681B6803F00103002BE4D17B68DF
:102E5000DB6D3F229A40FB689A607B68012283F811
:102E600035207B68002283F8342000231846103771
:102E7000BD4680BD80B483B000AF78607B6893F8B6
:102E80003530DBB2022B04D07B6880225A650123E7
:102E90000CE07B68052283F835207B681B681A6884
:102EA0007B681B6822F001021A60002318460C3769
:102EB000BD465DF8047B704780B586B000AF786092
:102EC0000023BB60924B1B68924AA2FB03239B0A20
:102ED0007B617B689B6D3B613B691B68FB607B682A
:102EE000DB6D08229A40FB681340002B1AD07B68E8
:102EF0001B681B6803F00403002B13D07B681B685E
:102F00001A687B681B6822F004021A607B68DB6D1C
:102F100008229A403B699A607B685B6D43F001022E
:102F20007B685A657B68DB6D01229A40FB68134021
:102F3000002B12D07B681B685B6903F08003002BB9
:102F40000BD07B68DB6D01229A403B699A607B68FD
:102F50005B6D43F002027B685A657B68DB6D04227F
:102F60009A40FB681340002B12D07B681B681B68DB
:102F700003F00203002B0BD07B68DB6D04229A4028
:102F80003B699A607B685B6D43F004027B685A651D
:102F90007B68DB6D10229A40FB681340002B43D006
:102FA0007B681B681B6803F00803002B3CD07B6820
:102FB000DB6D10229A403B699A607B681B681B6836
:102FC00003F48023002B18D07B681B681B6803F474
:102FD0000023002B08D17B681B6C002B24D07B685E
:102FE0001B6C786898471FE07B689B6C002B1BD09C
:102FF0007B689B6C7868984716E07B681B681B6849
:1030000003F48073002B07D17B681B681A687B6808
:103010001B6822F008021A607B681B6C002B03D02F
:103020007B681B6C786898477B68DB6D20229A4030
:10303000FB681340002B00F08E807B681B681B68C8
:1030400003F01003002B00F086807B68DB6D2022EC
:103050009A403B699A607B6893F83530DBB2052B68
:1030600036D17B681B681A687B681B6822F01602E1
:103070001A607B681B685A697B681B6822F08002B3
:103080005A617B681B6C002B03D17B689B6C002B07
:1030900007D07B681B681A687B681B6822F00802EF
:1030A0001A607B68DB6D3F229A403B699A607B68BF
:1030B000012283F835207B68002283F834207B6866
:1030C0001B6D002B7DD07B681B6D7868984778E07E
:1030D0007B681B681B6803F48023002B1CD07B6873
:1030E0001B681B6803F40023002B08D17B685B6C12
:1030F000002B30D07B685B6C786898472BE07B684E
:10310000DB6B002B27D07B68DB6B7868984722E06D
:1031100004000020B5814E1B7B681B681B6803F40C
:103120008073002B0FD17B681B681A687B681B6853
:1031300022F010021A607B68012283F835207B6838
:10314000002283F834207B68DB6B002B03D07B6884
:10315000DB6B786898477B685B6D002B32D07B68AF
:103160005B6D03F00103002B22D07B68052283F8FE
:1031700035207B681B681A687B681B6822F0010297
:103180001A60BB680133BB607A699A4207D37B68D7
:103190001B681B6803F00103002BF2D100E000BFA5
:1031A0007B68012283F835207B68002283F8342075
:1031B0007B68DB6C002B05D07B68DB6C78689847FC
:1031C00000E000BF1837BD4680BD00BF80B485B0A9
:1031D00000AFF860B9607A603B60FB681B681A68F2
:1031E000FB681B6822F480221A60FB681B683A683F
:1031F0005A60FB689B68402B08D1FB681B687A68A3
:103200009A60FB681B68BA68DA6007E0FB681B68B5
:10321000BA689A60FB681B687A68DA6000BF143786
:10322000BD465DF8047B704780B485B000AF786020
:103230007B681B68DBB2103B144AA2FB03231B090B
:10324000FB60134AFB6813441B781A467B68DA65F7
:10325000FB68032B09D97B681B6823F47F7323F079
:1032600003031A1D7B689A6507E07B681B6823F4DB
:103270007F7323F003037A6893657B689B6D184620
:103280001437BD465DF8047B704700BFABAAAAAAFD
:1032900048EB030880B485B000AF78600023FB736F
:1032A0007B689B6ABB607B689B69002B1FD1BB68F6
:1032B000032B56D801A252F823F000BFCD320108EB
:1032C000DF320108CD320108633301087B68DB6A15
:1032D00003F08073002B46D00123FB7343E07B682F
:1032E000DB6AB3F1C07F40D10123FB733DE07B6813
:1032F0009B69B3F5005F21D1BB68032B37D801A2CE
:1033000052F823F0153301081B3301081533010867
:103310002D3301080123FB7330E07B68DB6A03F087
:103320008073002B25D00123FB7322E07B68DB6ACE
:10333000B3F1C07F1FD10123FB731CE0BB68022BDC
:1033400003D9BB68032B03D018E00123FB7315E0FE
:103350007B68DB6A03F08073002B0ED00123FB73C4
:103360000BE000BF0AE000BF08E000BF06E000BFBE
:1033700004E000BF02E000BF00E000BFFB7B184696
:103380001437BD465DF8047B704700BF80B489B038
:1033900000AF7860396000237B6100233B6100232C
:1033A000BB610023FB616BE10122FB6902FA03F3BD
:1033B0007B613B681B687A6913403B613A697B69B2
:1033C0009A4240F05A813B685B6803F00303012B8B
:1033D00005D03B685B6803F00303022B30D17B68A8
:1033E0009B68BB61FB695B00032202FA03F3DB43CA
:1033F000BA691340BB613B68DA68FB695B0002FA9B
:1034000003F3BA691343BB617B68BA699A607B684E
:103410005B68BB610122FB6902FA03F3DB43BA6913
:103420001340BB613B685B681B0903F00102FB6949
:1034300002FA03F3BA691343BB617B68BA695A6045
:103440003B685B6803F00303032B17D07B68DB68E2
:10345000BB61FB695B00032202FA03F3DB43BA6939
:103460001340BB613B689A68FB695B0002FA03F397
:10347000BA691343BB617B68BA69DA603B685B6811
:1034800003F00303022B23D1FB69DA087B680832BF
:1034900053F82230BB61FB6903F007039B000F2246
:1034A00002FA03F3DB43BA691340BB613B681A6954
:1034B000FB6903F007039B0002FA03F3BA691343A5
:1034C000BB61FB69DA087B680832B96943F82210EE
:1034D0007B681B68BB61FB695B00032202FA03F394
:1034E000DB43BA691340BB613B685B6803F00302CE
:1034F000FB695B0002FA03F3BA691343BB617B68A3
:10350000BA691A603B685B6803F44033002B00F033
:10351000B4800023FB60604B5B6C5F4A43F48043E4
:1035200053645D4B5B6C03F48043FB60FB685B4A58
:10353000FB699B08023352F82330BB61FB6903F03F
:1035400003039B000F2202FA03F3DB43BA69134023
:10355000BB617B68524A93422BD07B68514A9342AD
:1035600025D07B68504A93421FD07B684F4A9342D4
:1035700019D07B684E4A934213D07B684D4A9342E0
:103580000DD07B684C4A934207D07B684B4A9342EC
:1035900001D107230EE008230CE006230AE00523EF
:1035A00008E0042306E0032304E0022302E00123F1
:1035B00000E00023FA6902F0030292009340BA6926
:1035C0001343BB613549FB699B080233BA6941F873
:1035D00023203B4B9B68BB613B69DB43BA691340CB
:1035E000BB613B685B6803F48013002B03D0BA69AE
:1035F0003B691343BB61324ABB699360304BDB6864
:10360000BB613B69DB43BA691340BB613B685B68E4
:1036100003F40013002B03D0BA693B691343BB6169
:10362000274ABB69D360264B5B68BB613B69DB43C0
:10363000BA691340BB613B685B6803F40033002B3D
:1036400003D0BA693B691343BB611D4ABB69536030
:103650001B4B1B68BB613B69DB43BA691340BB6111
:103660003B685B6803F48033002B03D0BA693B6985
:103670001343BB61124ABB691360FB690133FB61F1
:10368000FB690F2B7FF690AE00BF00BF2437BD460D
:103690005DF8047B704700BF0038024000380140ED
:1036A000000002400004024000080240000C0240FA
:1036B000001002400014024000180240001C0240AA
:1036C000003C014080B485B000AF78600B467B8041
:1036D0007B681A697B881340002B02D00123FB739F
:1036E00001E00023FB73FB7B18461437BD465DF8F1
:1036F000047B704780B483B000AF78600B467B805A
:1037000013467B707B78002B03D07A887B689A61A4
:1037100003E07B881A047B689A6100BF0C37BD46C2
:103720005DF8047B704780B485B000AF78600B46CD
:103730007B807B685B69FB607A88FB6813401A04B6
:10374000FB68D9437B880B401A437B689A6100BFB2
:103750001437BD465DF8047B7047000080B584B027
:1037600000AF78607B68002B01D101232BE17B68DF
:1037700093F83D30DBB2002B06D17B68002283F842
:103780003C207868FEF7D6F97B68242283F83D2038
:103790007B681B681A687B681B6822F001021A604C
:1037A0007B681B681A687B681B6842F400421A60D9
:1037B0007B681B681A687B681B6822F400421A60E9
:1037C00000F082FDF8607B685B68814A934207D80D
:1037D000FB68804A934294BF01230023DBB206E0DA
:1037E000FB687D4A934294BF01230023DBB2002B88
:1037F00001D00123E7E0FB68784AA2FB03239B0C7E
:10380000BB607B681B685B6823F03F017B681B68BB
:10381000BA680A435A607B681B681B6A23F03F0141
:103820007B685B686A4A934202D8BB68013309E04F
:10383000BB684FF4967202FB03F3694AA2FB0323B1
:103840009B0901337A6812680B4313627B681B681B
:10385000DB6923F44F4222F0FF027B685B685C491E
:103860008B4219D8FB68591E7B685B685B00B1FB13
:10387000F3F3591C40F6FC730B40002B0AD0FB6895
:10388000591E7B685B685B00B1FBF3F30133C3F344
:103890000B0351E004234FE07B689B68002B11D1A0
:1038A000FB68581E7B6859680B465B000B44B0FBF5
:1038B000F3F30133C3F30B03002B0CBF01230023ED
:1038C000DBB212E0FB68581E7B6859680B469B0010
:1038D0000B4499000B44B0FBF3F30133C3F30B0328
:1038E000002B0CBF01230023DBB2002B01D00123EE
:1038F00022E07B689B68002B0ED1FB68581E7B681A
:1039000059680B465B000B44B0FBF3F30133C3F380
:103910000B0343F400430FE0FB68581E7B685968B3
:103920000B469B000B4499000B44B0FBF3F30133AF
:10393000C3F30B0343F44043796809681343CB6135
:103940007B681B681B6823F0C0017B68DA697B68B1
:103950001B6A1A437B681B680A431A607B681B68F2
:103960009B6823F4034323F0FF037A6811697A68A4
:10397000D26811437A6812680B4393607B681B68B6
:10398000DB6823F0FF017B685A697B689B691A43F7
:103990007B681B680A43DA607B681B681A687B686F
:1039A0001B6842F001021A607B6800221A647B687F
:1039B000202283F83D207B6800221A637B68002266
:1039C00083F83E20002318461037BD4680BD00BF57
:1039D000A08601007F841E00FF083D0083DE1B439C
:1039E000D34D621080B584B000AF78607B68002B47
:1039F00001D1012334E07B681B684CF6CC421A608D
:103A00007B681B6845F255521A607B681B687A68B0
:103A100052685A607B681B687A6892689A60FEF701
:103A20003FFDF8600FE0FEF73BFD0246FB68D31A4E
:103A3000312B08D97B681B68DB6803F00303002B7C
:103A400001D003230CE07B681B68DB6803F00303F1
:103A5000002BE8D17B681B684AF6AA221A60002373
:103A600018461037BD4680BD80B483B000AF786083
:103A70007B681B684AF6AA221A60002318460C3796
:103A8000BD465DF8047B704780B586B000AF7860B6
:103A90007B68002B01D1012364E27B681B6803F083
:103AA0000103002B75D0A34B9B6803F00C03042B80
:103AB0000CD0A04B9B6803F00C03082B12D19D4B3C
:103AC0005B6803F48003B3F5800F0BD1994B1B683F
:103AD00003F40033002B5BD07B685B68002B57D16D
:103AE00001233FE27B685B68B3F5803F06D1914BD1
:103AF0001B68904A43F4803313601DE07B685B6869
:103B0000B3F5A02F0CD18B4B1B688A4A43F480235A
:103B10001360884B1B68874A43F4803313600BE0C3
:103B2000844B1B68834A23F480331360814B1B68EA
:103B3000804A23F4802313607B685B68002B13D0DA
:103B4000FEF7AEFC386108E0FEF7AAFC02463B69CE
:103B5000D31A642B01D9032304E2764B1B6803F4C8
:103B60000033002BF0D014E0FEF79AFC386108E037
:103B7000FEF796FC02463B69D31A642B01D9032356
:103B8000F0E16C4B1B6803F40033002BF0D100E034
:103B900000BF7B681B6803F00203002B63D0654BFA
:103BA0009B6803F00C03002B0BD0624B9B6803F067
:103BB0000C03082B1CD15F4B5B6803F48003002BC4
:103BC00016D15C4B1B6803F00203002B05D07B6809
:103BD000DB68012B01D00123C4E1564B1B6823F0A5
:103BE000F8027B681B69DB00524913430B603AE023
:103BF0007B68DB68002B20D04F4B01221A60FEF758
:103C00004FFC386108E0FEF74BFC02463B69D31AD3
:103C1000022B01D90323A5E1464B1B6803F00203E5
:103C2000002BF0D0434B1B6823F0F8027B681B6924
:103C3000DB00404913430B6015E03F4B00221A6044
:103C4000FEF72EFC386108E0FEF72AFC02463B69CD
:103C5000D31A022B01D9032384E1364B1B6803F0EE
:103C60000203002BF0D17B681B6803F00803002BD4
:103C700030D07B685B69002B16D0304B01221A6074
:103C8000FEF70EFC386108E0FEF70AFC02463B69CD
:103C9000D31A022B01D9032364E1264B5B6F03F097
:103CA0000203002BF0D015E0244B00221A60FEF72F
:103CB000F7FB386108E0FEF7F3FB02463B69D31AD5
:103CC000022B01D903234DE11A4B5B6F03F0020372
:103CD000002BF0D17B681B6803F00403002B00F07D
:103CE000A0800023FB75134B1B6C03F08053002B4B
:103CF0000FD10023BB600F4B1B6C0E4A43F0805367
:103D000013640C4B1B6C03F08053BB60BB68012336
:103D1000FB750B4B1B6803F48073002B21D1084B00
:103D20001B68074A43F480731360FEF7B9FB3861E0
:103D300011E000BF0038024000004742800E4742B9
:103D400000700040FEF7ACFB02463B69D31A022B21
:103D500001D9032306E1854B1B6803F48073002B14
:103D6000F0D07B689B68012B06D1814B1B6F804A8A
:103D700043F0010313671CE07B689B68052B0CD1A3
:103D80007B4B1B6F7A4A43F004031367784B1B6F1E
:103D9000774A43F0010313670BE0754B1B6F744ABE
:103DA00023F001031367724B1B6F714A23F0040366
:103DB00013677B689B68002B15D0FEF771FB386199
:103DC0000AE0FEF76DFB02463B69D31A41F28832E6
:103DD000934201D90323C5E0654B1B6F03F0020337
:103DE000002BEED014E0FEF75BFB38610AE0FEF733
:103DF00057FB02463B69D31A41F28832934201D9FC
:103E00000323AFE05A4B1B6F03F00203002BEED1EC
:103E1000FB7D012B05D1564B1B6C554A23F080537B
:103E200013647B689B69002B00F09B80504B9B6860
:103E300003F00C03082B5CD07B689B69022B41D1FB
:103E40004C4B00221A60FEF72BFB386108E0FEF7AE
:103E500027FB02463B69D31A022B01D9032381E0D9
:103E6000434B1B6803F00073002BF0D17B68DA69C9
:103E70007B681B6A1A437B685B6A9B011A437B68F9
:103E80009B6A5B08013B1B041A437B68DB6A1B06C9
:103E9000374913434B60374B01221A60FEF700FB92
:103EA000386108E0FEF7FCFA02463B69D31A022BA0
:103EB00001D9032356E02E4B1B6803F00073002B3F
:103EC000F0D04EE02B4B00221A60FEF7E9FA386181
:103ED00008E0FEF7E5FA02463B69D31A022B01D946
:103EE00003233FE0224B1B6803F00073002BF0D14B
:103EF00037E07B689B69012B01D1012332E01C4B29
:103F00005B68FB607B689B69012B28D0FB6803F42E
:103F100080027B68DB699A4221D1FB6803F03F0293
:103F20007B681B6A9A421AD1FA6847F6C07313403D
:103F30007A68526A9201934211D1FB6803F44032CD
:103F40007B689B6A5B08013B1B049A4207D1FB68B4
:103F500003F070627B68DB6A1B069A4201D0012382
:103F600000E0002318461837BD4680BD00700040B1
:103F7000003802406000474280B584B000AF7860EE
:103F800039607B68002B01D10123CCE0684B1B68B2
:103F900003F007033A689A420CD9654B3A68D2B2EB
:103FA0001A70634B1B6803F007033A689A4201D00A
:103FB0000123B8E07B681B6803F00203002B20D0CC
:103FC0007B681B6803F00403002B05D0594B9B68EA
:103FD000584A43F4E05393607B681B6803F008037E
:103FE000002B05D0534B9B68524A43F460439360C7
:103FF000504B9B6823F0F0027B689B684D4913434C
:104000008B607B681B6803F00103002B44D07B6846
:104010005B68012B07D1474B1B6803F40033002B6F
:1040200019D101237FE07B685B68022B03D07B689A
:104030005B68032B07D13F4B1B6803F00073002B19
:1040400009D101236FE03B4B1B6803F00203002BF7
:1040500001D1012367E0374B9B6823F003027B68A3
:104060005B68344913438B60FEF71AFAF8600AE084
:10407000FEF716FA0246FB68D31A41F288329342E1
:1040800001D903234FE02B4B9B6803F00C027B68A4
:104090005B689B009A42EBD1254B1B6803F007033A
:1040A0003A689A420CD2224B3A68D2B21A70204B2C
:1040B0001B6803F007033A689A4201D0012332E0FB
:1040C0007B681B6803F00403002B08D0194B9B6826
:1040D00023F4E0527B68DB68164913438B607B68EE
:1040E0001B6803F00803002B09D0124B9B6823F4D4
:1040F00060427B681B69DB000E4913438B6000F054
:1041000021F802460B4B9B681B0903F00F030A4979
:10411000CB5C22FA03F3094A1360094B1B6818466B
:10412000FDF7E4FF002318461037BD4680BD00BFF1
:10413000003C02400038024030EB0308040000203D
:1041400008000020B0B584B000AF002179600021E4
:10415000F960002139600021B9605249896801F095
:104160000C0108290DD0082900F29480002902D002
:10417000042903D08EE04C4BBB608EE04B4BBB6000
:104180008BE04849496801F03F0179604549496839
:1041900001F48001002924D0424949688909084670
:1041A0004FF0000140F2FF144FF0000500EA040256
:1041B00001EA05033D4901FB03F0002101FB02F187
:1041C00044183A49A2FB0101631819467B681A4654
:1041D0004FF00003FCF754F802460B461346FB6011
:1041E0004AE0304B5B689B091A464FF0000340F2EF
:1041F000FF104FF0000102EA000403EA0105204627
:1042000029464FF000024FF000034B0143EAD06310
:10421000420110461946001B61EB05014FF00002F8
:104220004FF000038B0143EA90638201121A63EBA3
:1042300001034FF000004FF00001D90041EA527134
:10424000D00002460B46121945EB03034FF0000065
:104250004FF00001990241EA9251900202460B464A
:10426000104619467B681A464FF00003FCF708F821
:1042700002460B461346FB600A4B5B681B0C03F0BF
:10428000030301335B003B60FA683B68B2FBF3F366
:10429000BB6002E0044BBB6000BFBB681846103730
:1042A000BD46B0BD003802400024F40040787D01D6
:1042B00080B400AF034B1B681846BD465DF8047B15
:1042C000704700BF0400002080B500AFFFF7F0FF8B
:1042D0000246054B9B689B0A03F007030349CB5C2E
:1042E00022FA03F3184680BD0038024040EB030871
:1042F00080B500AFFFF7DCFF0246054B9B685B0B08
:1043000003F007030349CB5C22FA03F3184680BD90
:104310000038024040EB030880B483B000AF7860FF
:1043200039607B680F221A60124B9B6803F003020E
:104330007B685A600F4B9B6803F0F0027B689A60C1
:104340000C4B9B6803F4E0527B68DA60094B9B6876
:10435000DB0803F4E0527B681A61074B1B6803F02B
:1043600007023B681A6000BF0C37BD465DF8047B4E
:10437000704700BF00380240003C024080B586B064
:1043800000AF786000237B6100233B617B681B6882
:1043900003F00103002B05D17B681B6803F00403C5
:1043A000002B35D0624B00221A60FEF779F8786155
:1043B00008E0FEF775F802467B69D31A022B01D993
:1043C0000323B0E05B4B1B6803F00063002BF0D1CC
:1043D0007B685B689A017B689B681B0755491343A0
:1043E000C1F88430524B01221A60FEF759F8786107
:1043F00008E0FEF755F802467B69D31A022B01D973
:10440000032390E04B4B1B6803F00063002BF0D0BC
:104410007B681B6803F00203002B00F083800023FD
:10442000FB60444B1B6C434A43F080531364414B85
:104430001B6C03F08053FB60FB683F4B1B683E4ADC
:1044400043F480731360FEF72BF8786108E0FEF701
:1044500027F802467B69D31A022B01D9032362E0B5
:10446000354B1B6803F48073002BF0D0314B1B6F6E
:1044700003F440733B613B69002B2FD07B68DB6802
:1044800003F440733A699A4228D02A4B1B6F23F4F5
:1044900040733B61294B01221A60284B00221A60AD
:1044A000244A3B691367234B1B6F03F00103012B65
:1044B00014D1FDF7F5FF78610AE0FDF7F1FF024640
:1044C0007B69D31A41F28832934201D903232AE04F
:1044D000184B1B6F03F00203002BEED07B68DB68E8
:1044E00003F44073B3F5407F0DD1124B9B6823F466
:1044F000F8127B68DB6823F0704323F440730D49A6
:1045000013438B6005E00B4B9B680A4A23F4F813B6
:104510009360084B1A6F7B68DB68C3F30B03054994
:1045200013430B67002318461837BD4680BD00BFF4
:10453000680047420038024000700040400E474289
:1045400080B584B000AF78600123FB737B68002BDB
:1045500001D1012366E07B685B7FDBB2002B05D1D4
:104560007B6800221A777868FDF72CFB7B680222B3
:104570005A777B681B68CA225A627B681B68532281
:104580005A62786800F045FA0346FB73FB7B002B08
:104590002CD17B681B689B687A68126823F4E0035F
:1045A00023F0400393607B681B6899687B685A68B6
:1045B0007B681B691A437B685B691A437B681B68CD
:1045C0000A439A607B681B687A68D2681A617B68C4
:1045D0001B6819697B689B681A047B681B680A431F
:1045E0001A61786800F04CFA0346FB73FB7B002BE2
:1045F00013D17B681B681A6C7B681B6822F48022CD
:104600001A647B681B68196C7B689A697B681B68F5
:104610000A431A647B6801225A777B681B68FF2271
:104620005A62FB7B18461037BD4680BD90B587B0F7
:1046300000AFF860B9607A6000237B61FB681B7F84
:10464000012B01D1022387E0FB6801221A77FB6866
:1046500002225A777B68002B26D1FB681B689B6877
:1046600003F04003002B02D1BB680022DA70BB6864
:104670001B78184600F029FA03461C04BB685B78D7
:10468000184600F022FA03461B021C43BB689B78C5
:10469000184600F01AFA034644EA0302BB68DB78C6
:1046A0009B0513437B6118E0FB681B689B6803F064
:1046B0004003002B02D1BB680022DA70BB681B7874
:1046C0001A04BB685B781B021343BA6892781A43DA
:1046D000BB68DB789B0513437B61FB681B68CA22C0
:1046E0005A62FB681B6853225A62F86800F091F91D
:1046F0000346FB74FB7C002B20D1FB681A687B69A6
:1047000003F07F3323F0FE431360FB681B689A6855
:10471000FB681B6822F480229A60FB681B6899681A
:10472000BB68DA68BB681B691A43FB681B680A43ED
:104730009A60F86800F0A4F90346FB74FB7C002B38
:1047400002D1FB6801225A77FB681B68FF225A627C
:10475000FB6800221A77FB7C18461C37BD4690BDCB
:1047600080B586B000AFF860B9607A6000237B61E5
:10477000FB681B689A6ABB685A60FB681B681B6908
:10478000C3F30E02BB689A60FB681B681B6803F0EA
:104790007F3323F0FE437B617B691B0CDBB203F0AC
:1047A0003F03DAB2BB681A707B691B0ADBB203F005
:1047B0007F03DAB2BB685A707B69DBB203F07F0318
:1047C000DAB2BB689A707B699B0DDBB203F0010320
:1047D000DAB2BB68DA707B68002B1AD1BB681B7831
:1047E000184600F08FF903461A46BB681A70BB687A
:1047F0005B78184600F086F903461A46BB685A7083
:10480000BB689B78184600F07DF903461A46BB68E2
:104810009A70002318461837BD4680BD90B587B002
:1048200000AFF860B9607A6000237B61FB681B7F92
:10483000012B01D1022371E0FB6801221A77FB688A
:1048400002225A777B68002B0ED1BB685B7803F09D
:104850001003002B08D0BB685B7823F01003DBB299
:104860000A33DAB2BB685A707B68002B1CD1BB6874
:10487000DB78184600F029F903461C04BB685B7816
:10488000184600F022F903461B021C43BB689B78C4
:10489000184600F01AF9034644EA0302BB681B7885
:1048A0005B0313437B610EE0BB68DB781A04BB68D3
:1048B0005B781B021343BA6892781A43BB681B7873
:1048C0005B0313437B61FB681B68CA225A62FB6867
:1048D0001B6853225A62F86800F09BF80346FB7489
:1048E000FB7C002B0CD1FB681A687B6923F07F43AB
:1048F00023F0C0035360F86800F0C2F80346FB746D
:10490000FB7C002B02D1FB6801225A77FB681B68F5
:10491000FF225A62FB6800221A77FB7C18461C377C
:10492000BD4690BD80B586B000AFF860B9607A60D2
:1049300000237B61FB681B685B6823F07F4323F0E7
:10494000C0037B617B691B0CDAB2BB68DA707B69E0
:104950001B0ADBB203F01F03DAB2BB685A707B6933
:10496000DBB203F03F03DAB2BB689A707B695B0B82
:10497000DBB203F00703DAB2BB681A707B68002B66
:104980001AD1BB68DB78184600F0BCF803461A461B
:10499000BB68DA70BB685B78184600F0B3F8034672
:1049A0001A46BB685A70BB689B78184600F0AAF894
:1049B00003461A46BB689A70002318461837BD464E
:1049C00080BD80B584B000AF78600023FB607B6859
:1049D0001B68DA687B681B6822F0A002DA60FDF7CA
:1049E0005FFDF86009E0FDF75BFD0246FB68D31A46
:1049F000B3F57A7F01D9032307E07B681B68DB6886
:104A000003F02003002BEED0002318461037BD46DC
:104A100080BD80B584B000AF78600023BB60002308
:104A2000FB737B681B68DB6803F04003002B22D11B
:104A30007B681B68DA687B681B6842F08002DA607A
:104A4000FDF72EFDB8600CE0FDF72AFD0246BB68BD
:104A5000D31AB3F57A7F04D97B6804225A770123ED
:104A6000FB737B681B68DB6803F04003002B02D1FB
:104A7000FB7B012BE8D1FB7B18461037BD4680BD80
:104A800080B584B000AF78600023FB737B681B683F
:104A9000DA687B681B6822F08002DA607B681B683A
:104AA0009B6803F02003002B0AD17868FFF789FF89
:104AB0000346002B04D07B6804225A770123FB7342
:104AC000FB7B18461037BD4680BD80B485B000AF73
:104AD0000346FB710023FB7305E0FB7B0133FB7393
:104AE000FB790A3BFB71FB79092BF6D8FB7B1B0199
:104AF000DAB2FB791343DBB218461437BD465DF8D2
:104B0000047B704780B485B000AF0346FB7100237F
:104B1000FB73FB791B09DBB21A46920013445B005E
:104B2000FB73FB7903F00F03DAB2FB7B1344DBB2B8
:104B300018461437BD465DF8047B704780B582B0D7
:104B400000AF78607B68002B01D101237BE07B689C
:104B50005B6A002B08D17B685B68B3F5827F09D064
:104B60007B680022DA6105E07B6800221A617B68BD
:104B700000225A617B6800229A627B6893F8513068
:104B8000DBB2002B06D17B68002283F850207868C6
:104B9000FDF742F87B68022283F851207B681B688E
:104BA0001A687B681B6822F040021A607B685B68A9
:104BB00003F482727B689B6803F404431A437B68A6
:104BC000DB6803F400631A437B681B6903F002038C
:104BD0001A437B685B6903F001031A437B689B6996
:104BE00003F400731A437B68DB6903F038031A434C
:104BF0007B681B6A03F0800342EA03017B689B6ABF
:104C000003F400527B681B680A431A607B689B6947
:104C10001B0C03F004017B685B6A03F010027B68E5
:104C20001B680A435A607B681B68DA697B681B68EB
:104C300022F40062DA617B6800225A657B680122F7
:104C400083F85120002318460837BD4680BD80B543
:104C500088B000AFF860B9603B601346FB8000236A
:104C6000FB77FB6893F85030012B01D1022326E13A
:104C7000FB68012283F85020FDF712FCB861FB8825
:104C8000FB82FB6893F85130DBB2012B02D0022388
:104C9000FB770BE1BB68002B02D0FB88002B02D115
:104CA0000123FB7702E1FB68032283F85120FB68B4
:104CB00000225A65FB68BA681A63FB68FA889A860C
:104CC000FB68FA88DA86FB6800229A63FB68002298
:104CD0009A87FB680022DA87FB6800225A64FB6827
:104CE00000221A64FB689B68B3F5004F0FD1FB6884
:104CF0001B681A68FB681B6822F040021A60FB6898
:104D00001B681A68FB681B6842F480421A60FB68E3
:104D10001B681B6803F04003402B07D0FB681B682F
:104D20001A68FB681B6842F040021A60FB68DB6887
:104D3000B3F5006F4BD1FB685B68002B02D0FB8A98
:104D4000012B3ED1FB681B6B1A88FB681B68DA607D
:104D5000FB681B6B9A1CFB681A63FB68DB8E9BB2BB
:104D6000013B9AB2FB68DA862BE0FB681B689B6804
:104D700003F00203022B12D1FB681B6B1A88FB683D
:104D80001B68DA60FB681B6B9A1CFB681A63FB6884
:104D9000DB8E9BB2013B9AB2FB68DA8611E0FDF72D
:104DA0007FFB0246BB69D31A3A689A4203D83B6834
:104DB000B3F1FF3F02D13B68002B02D10323FB7705
:104DC00074E0FB68DB8E9BB2002BCED14CE0FB681D
:104DD0005B68002B02D0FB8A012B40D1FB681A6B69
:104DE000FB681B680C3312781A70FB681B6B5A1C2B
:104DF000FB681A63FB68DB8E9BB2013B9AB2FB68CF
:104E0000DA862CE0FB681B689B6803F00203022B28
:104E100013D1FB681A6BFB681B680C3312781A708D
:104E2000FB681B6B5A1CFB681A63FB68DB8E9BB22A
:104E3000013B9AB2FB68DA8611E0FDF731FB0246CE
:104E4000BB69D31A3A689A4203D83B68B3F1FF3F73
:104E500002D13B68002B02D10323FB7726E0FB68DD
:104E6000DB8E9BB2002BCDD1BA693968F86800F0AF
:104E7000CBFB0346002B02D0FB6820225A65FB685F
:104E80009B68002B0AD100233B61FB681B68DB6831
:104E90003B61FB681B689B683B613B69FB685B6D22
:104EA000002B02D00123FB7700E000BFFB6801224A
:104EB00083F85120FB68002283F85020FB7F1846BE
:104EC0002037BD4680BD80B588B002AFF860B960BC
:104ED0003B601346FB800023FB75FB685B68B3F502
:104EE000827F12D1FB689B68002B0ED1FB680422E5
:104EF00083F85120FA883B6800931346BA68B96872
:104F0000F86800F0F1F80346EAE0FB6893F85030E7
:104F1000012B01D10223E3E0FB68012283F850203A
:104F2000FDF7BEFA3861FB6893F85130DBB2012B14
:104F300002D00223FB75CAE0BB68002B02D0FB88BD
:104F4000002B02D10123FB75C1E0FB68042283F82A
:104F50005120FB6800225A65FB68BA689A63FB68B7
:104F6000FA889A87FB68FA88DA87FB6800221A6356
:104F7000FB6800229A86FB680022DA86FB68002222
:104F80001A64FB6800225A64FB689B68B3F5004F03
:104F90000FD1FB681B681A68FB681B6822F040028F
:104FA0001A60FB681B681A68FB681B6822F4804261
:104FB0001A60FB681B681B6803F04003402B07D096
:104FC000FB681B681A68FB681B6842F040021A60A5
:104FD000FB68DB68002B62D12EE0FB681B689B68D6
:104FE00003F00103012B15D1FB681B6803F10C02D0
:104FF000FB689B6B1278D2B21A70FB689B6B5A1CD1
:10500000FB689A63FB68DB8F9BB2013B9AB2FB683B
:10501000DA8711E0FDF744FA02463B69D31A3A6891
:105020009A4203D83B68B3F1FF3F02D13B68002BA3
:1050300002D10323FB754AE0FB68DB8F9BB2002B98
:10504000CBD131E0FB681B689B6803F00103012BA7
:1050500013D1FB681B68DA68FB689B6B92B21A80FD
:10506000FB689B6B9A1CFB689A63FB68DB8F9BB2A7
:10507000013B9AB2FB68DA8711E0FDF711FA0246AC
:105080003B69D31A3A689A4203D83B68B3F1FF3FB1
:1050900002D13B68002B02D10323FB7517E0FB68AC
:1050A000DB8F9BB2002BCDD13A693968F86800F0EC
:1050B00045FA0346002B02D0FB6820225A65FB68A4
:1050C0005B6D002B02D00123FB7500E000BFFB6885
:1050D000012283F85120FB68002283F85020FB7DD9
:1050E00018461837BD4680BD80B58CB000AFF8605B
:1050F000B9607A607B800123FB62002387F82B3044
:10510000FB6893F85030012B01D102238AE1FB6840
:10511000012283F85020FDF7C3F97862FB6893F809
:10512000513087F82330FB685B68FB617B887B83A9
:1051300097F82330012B0FD0FB69B3F5827F07D19D
:10514000FB689B68002B03D197F82330042B03D016
:10515000022387F82B305BE1BB68002B05D07B680E
:10516000002B02D07B88002B03D1012387F82B3042
:105170004EE1FB6893F85130DBB2042B03D0FB689F
:10518000052283F85120FB6800225A65FB687A6883
:105190009A63FB687A88DA87FB687A889A87FB6863
:1051A000BA681A63FB687A88DA86FB687A889A8616
:1051B000FB6800221A64FB6800225A64FB681B68C3
:1051C0001B6803F04003402B07D0FB681B681A687C
:1051D000FB681B6842F040021A60FB68DB68B3F5AD
:1051E000006F78D1FB685B68002B02D07B8B012BB2
:1051F00066D1FB681B6B1A88FB681B68DA60FB686A
:105200001B6B9A1CFB681A63FB68DB8E9BB2013B2D
:105210009AB2FB68DA8653E0FB681B689B6803F070
:105220000203022B1BD1FB68DB8E9BB2002B16D036
:10523000FB6A012B13D1FB681B6B1A88FB681B6888
:10524000DA60FB681B6B9A1CFB681A63FB68DB8ED9
:105250009BB2013B9AB2FB68DA860023FB62FB68D3
:105260001B689B6803F00103012B19D1FB68DB8FDE
:105270009BB2002B14D0FB681B68DA68FB689B6B41
:1052800092B21A80FB689B6B9A1CFB689A63FB685E
:10529000DB8F9BB2013B9AB2FB68DA870123FB628A
:1052A000FDF7FEF802467B6AD31ABA6B9A4207D81A
:1052B000BB6BB3F1FF3F03D0032387F82B30A7E08C
:1052C000FB68DB8E9BB2002BA6D1FB68DB8F9BB209
:1052D000002BA1D17CE0FB685B68002B02D07B8BAC
:1052E000012B6BD1FB681A6BFB681B680C331278BF
:1052F0001A70FB681B6B5A1CFB681A63FB68DB8E19
:105300009BB2013B9AB2FB68DA8657E0FB681B68E8
:105310009B6803F00203022B1CD1FB68DB8E9BB25F
:10532000002B17D0FB6A012B14D1FB681A6BFB68AA
:105330001B680C3312781A70FB681B6B5A1CFB68D5
:105340001A63FB68DB8E9BB2013B9AB2FB68DA867C
:105350000023FB62FB681B689B6803F00103012BC1
:1053600019D1FB68DB8F9BB2002B14D0FB681B6844
:10537000DA68FB689B6BD2B21A70FB689B6B5A1C95
:10538000FB689A63FB68DB8F9BB2013B9AB2FB68B8
:10539000DA870123FB62FDF783F802467B6AD31AA2
:1053A000BA6B9A4203D8BB6BB3F1FF3F02D1BB6B20
:1053B000002B03D1032387F82B3029E0FB68DB8E19
:1053C0009BB2002BA2D1FB68DB8F9BB2002B9DD13F
:1053D0007A6AB96BF86800F017F90346002B06D01B
:1053E000012387F82B30FB6820225A6510E0FB6808
:1053F0009B68002B0BD100237B61FB681B68DB687B
:105400007B61FB681B689B687B617B6900E000BF78
:10541000FB68012283F85120FB68002283F85020AA
:1054200097F82B3018463037BD4680BD80B588B020
:1054300000AFF860B9603B601346FB71FDF730F8D0
:105440000246BB6A9B1A3A681344FB61FDF728F8D1
:10545000B861394B1B685B011B0DFA6902FB03F352
:105460007B6154E03B68B3F1FF3F50D0FDF718F883
:105470000246BB69D31AFA699A4202D9FB69002B2A
:105480003DD1FB681B685A68FB681B6822F0E0028C
:105490005A60FB685B68B3F5827F11D1FB689B683B
:1054A000B3F5004F04D0FB689B68B3F5806F07D15C
:1054B000FB681B681A68FB681B6822F040021A60D0
:1054C000FB689B6AB3F5005F0FD1FB681B681A6825
:1054D000FB681B6822F400521A60FB681B681A689C
:1054E000FB681B6842F400521A60FB68012283F8D3
:1054F0005120FB68002283F85020032317E07B69CA
:10550000002B01D10023FB617B69013B7B61FB68C0
:105510001B689A68BB681340BA689A420CBF0123A3
:105520000023DBB21A46FB799A429BD1002318462E
:105530002037BD4680BD00BF0400002080B586B086
:1055400002AFF860B9607A60FB685B68B3F5827F90
:1055500011D1FB689B68B3F5004F04D0FB689B68D2
:10556000B3F5806F07D1FB681B681A68FB681B687E
:1055700022F040021A60FB685B68B3F5827F2AD193
:10558000FB689B68B3F5806F12D07B680093BB68A3
:1055900000228021F868FFF749FF0346002B2DD039
:1055A000FB685B6D43F02002FB685A65032326E02D
:1055B0007B680093BB6800220121F868FFF736FF83
:1055C0000346002B1AD0FB685B6D43F02002FB689A
:1055D0005A65032313E07B680093BB680022012116
:1055E000F868FFF723FF0346002B07D0FB685B6DCD
:1055F00043F02002FB685A65032300E000231846AD
:105600001037BD4680BD000080B588B002AFF8609D
:10561000B9607A601B4B1B681B4AA2FB03235B0D1E
:105620004FF47A7202FB03F37B61FB685B68B3F5AE
:10563000827F12D17B680093BB6800228021F868CA
:10564000FFF7F4FE0346002B16D0FB685B6D43F0BA
:105650002002FB685A6503230FE07B69002B0AD008
:105660007B69013B7B61FB681B689B6803F08003DF
:10567000802BF2D000E000BF002318461837BD464B
:1056800080BD00BF04000020819F5E1680B582B0FF
:1056900000AF78607B68002B01D1012341E07B687B
:1056A00093F83D30DBB2002B06D17B68002283F8F3
:1056B0003C207868FCF730FB7B68022283F83D20B1
:1056C0007B681A687B6804331946104600F096FA26
:1056D0007B68012283F846207B68012283F83E2004
:1056E0007B68012283F83F207B68012283F84020F9
:1056F0007B68012283F841207B68012283F84220E5
:105700007B68012283F843207B68012283F84420D0
:105710007B68012283F845207B68012283F83D20C5
:10572000002318460837BD4680BD000080B485B010
:1057300000AF78607B6893F83D30DBB2012B01D07D
:1057400001234EE07B68022283F83D207B681B68C2
:10575000DA687B681B6842F00102DA607B681B68CC
:10576000234A934222D07B681B68B3F1804F1DD03F
:105770007B681B681F4A934218D07B681B681E4ACF
:10578000934213D07B681B681C4A93420ED07B68FF
:105790001B681B4A934209D07B681B68194A9342D5
:1057A00004D07B681B68184A934211D17B681B6840
:1057B0009B6803F00703FB60FB68062B10D07B6837
:1057C0001B681A687B681B6842F001021A6007E0D8
:1057D0007B681B681A687B681B6842F001021A60CC
:1057E000002318461437BD465DF8047B704700BFA0
:1057F000000001400004004000080040000C004090
:1058000000040140004001400018004080B582B013
:1058100000AF78607B681B681B6903F00203022BF2
:1058200022D17B681B68DB6803F00203022B1BD1CB
:105830007B681B686FF002021A617B6801221A778D
:105840007B681B689B6903F00303002B03D0786817
:1058500000F0B5F905E0786800F0A7F9786800F085
:10586000B8F97B6800221A777B681B681B6903F014
:105870000403042B22D17B681B68DB6803F004035C
:10588000042B1BD17B681B686FF004021A617B68D4
:1058900002221A777B681B689B6903F44073002B14
:1058A00003D0786800F08BF905E0786800F07DF9A6
:1058B000786800F08EF97B6800221A777B681B6895
:1058C0001B6903F00803082B22D17B681B68DB6887
:1058D00003F00803082B1BD17B681B686FF00802DC
:1058E0001A617B6804221A777B681B68DB6903F006
:1058F0000303002B03D0786800F061F905E07868B5
:1059000000F053F9786800F064F97B6800221A7798
:105910007B681B681B6903F01003102B22D17B6886
:105920001B68DB6803F01003102B1BD17B681B681E
:105930006FF010021A617B6808221A777B681B6877
:10594000DB6903F44073002B03D0786800F037F96B
:1059500005E0786800F029F9786800F03AF97B688A
:1059600000221A777B681B681B6903F00103012B77
:105970000ED17B681B68DB6803F00103012B07D1A4
:105980007B681B686FF001021A617868FBF75CFDA9
:105990007B681B681B6903F08003802B0ED17B683A
:1059A0001B68DB6803F08003802B07D17B681B68D2
:1059B0006FF080021A61786800F0E0FA7B681B687B
:1059C0001B6903F04003402B0ED17B681B68DB682A
:1059D00003F04003402B07D17B681B686FF0400247
:1059E0001A61786800F0FFF87B681B681B6903F098
:1059F0002003202B0ED17B681B68DB6803F020039B
:105A0000202B07D17B681B686FF020021A61786831
:105A100000F0AAFA00BF0837BD4680BD80B584B04B
:105A200000AF786039600023FB737B6893F83C30EB
:105A3000012B01D10223B4E07B68012283F83C20D2
:105A40007B68022283F83D207B681B689B68BB60F3
:105A5000BB6823F07703BB60BB6823F47F43BB6064
:105A60007B681B68BA689A603B681B68B3F5005F87
:105A70003ED0B3F5005F00F28780B3F5805F00F0A1
:105A80008680B3F5805F7FD8702B1AD0702B7BD8BF
:105A9000602B50D0602B77D8502B3CD0502B73D834
:105AA000402B58D0402B6FD8302B64D0302B6BD884
:105AB000202B60D0202B67D8002B5CD0102B5AD025
:105AC00062E07B6818683B6899683B685A683B6885
:105AD000DB6800F0ADF97B681B689B68BB60BB6846
